{
    "_format": "hh-sol-artifact-1",
    "contractName": "Mudrika",
    "sourceName": "contracts/mudrika.sol",
    "abi": [
        {
            "inputs": [],
            "stateMutability": "nonpayable",
            "type": "constructor"
        },
        {
            "anonymous": false,
            "inputs": [
                {
                    "indexed": false,
                    "internalType": "uint256",
                    "name": "amount",
                    "type": "uint256"
                },
                {
                    "indexed": false,
                    "internalType": "address",
                    "name": "by",
                    "type": "address"
                }
            ],
            "name": "fundDeposited",
            "type": "event"
        },
        {
            "anonymous": false,
            "inputs": [
                {
                    "indexed": false,
                    "internalType": "uint256",
                    "name": "amount",
                    "type": "uint256"
                },
                {
                    "indexed": false,
                    "internalType": "address",
                    "name": "to",
                    "type": "address"
                }
            ],
            "name": "fundTransferred",
            "type": "event"
        },
        {
            "anonymous": false,
            "inputs": [
                {
                    "indexed": false,
                    "internalType": "uint256",
                    "name": "requestId",
                    "type": "uint256"
                }
            ],
            "name": "requestAdded",
            "type": "event"
        },
        {
            "inputs": [
                {
                    "internalType": "address",
                    "name": "account",
                    "type": "address"
                },
                {
                    "internalType": "uint8",
                    "name": "userType",
                    "type": "uint8"
                },
                {
                    "internalType": "string",
                    "name": "name",
                    "type": "string"
                }
            ],
            "name": "addUser",
            "outputs": [],
            "stateMutability": "nonpayable",
            "type": "function"
        },
        {
            "inputs": [
                {
                    "internalType": "uint256",
                    "name": "requestId",
                    "type": "uint256"
                }
            ],
            "name": "approveRequest",
            "outputs": [],
            "stateMutability": "nonpayable",
            "type": "function"
        },
        {
            "inputs": [],
            "name": "fundRemaining",
            "outputs": [
                {
                    "internalType": "uint256",
                    "name": "",
                    "type": "uint256"
                }
            ],
            "stateMutability": "view",
            "type": "function"
        },
        {
            "inputs": [],
            "name": "requestCount",
            "outputs": [
                {
                    "internalType": "uint256",
                    "name": "",
                    "type": "uint256"
                }
            ],
            "stateMutability": "view",
            "type": "function"
        },
        {
            "inputs": [
                {
                    "internalType": "uint256",
                    "name": "amount",
                    "type": "uint256"
                },
                {
                    "internalType": "address",
                    "name": "to",
                    "type": "address"
                },
                {
                    "internalType": "string",
                    "name": "description",
                    "type": "string"
                }
            ],
            "name": "requestFunds",
            "outputs": [],
            "stateMutability": "nonpayable",
            "type": "function"
        },
        {
            "inputs": [
                {
                    "internalType": "uint256",
                    "name": "",
                    "type": "uint256"
                }
            ],
            "name": "requestsReceived",
            "outputs": [
                {
                    "internalType": "uint256",
                    "name": "requestId",
                    "type": "uint256"
                },
                {
                    "internalType": "uint256",
                    "name": "fund",
                    "type": "uint256"
                },
                {
                    "internalType": "string",
                    "name": "description",
                    "type": "string"
                },
                {
                    "internalType": "address",
                    "name": "from",
                    "type": "address"
                },
                {
                    "internalType": "address",
                    "name": "to",
                    "type": "address"
                },
                {
                    "internalType": "bool",
                    "name": "approvalStatus",
                    "type": "bool"
                }
            ],
            "stateMutability": "view",
            "type": "function"
        },
        {
            "stateMutability": "payable",
            "type": "receive"
        }
    ],
    "bytecode": "0x60806040523480156200001157600080fd5b50336000806101000a81548173ffffffffffffffffffffffffffffffffffffffff021916908373ffffffffffffffffffffffffffffffffffffffff1602179055506000600281905550620000a1336040518060400160405280600581526020017f41646d696e000000000000000000000000000000000000000000000000000000815250620000a760201b60201c565b6200032f565b600060405180606001604052808473ffffffffffffffffffffffffffffffffffffffff16815260200183815260200160048081111562000110577f4e487b7100000000000000000000000000000000000000000000000000000000600052602160045260246000fd5b815250905080600160008573ffffffffffffffffffffffffffffffffffffffff1673ffffffffffffffffffffffffffffffffffffffff16815260200190815260200160002060008201518160000160006101000a81548173ffffffffffffffffffffffffffffffffffffffff021916908373ffffffffffffffffffffffffffffffffffffffff1602179055506020820151816001019080519060200190620001ba9291906200021a565b5060408201518160020160006101000a81548160ff021916908360048111156200020d577f4e487b7100000000000000000000000000000000000000000000000000000000600052602160045260246000fd5b0217905550905050505050565b8280546200022890620002ca565b90600052602060002090601f0160209004810192826200024c576000855562000298565b82601f106200026757805160ff191683800117855562000298565b8280016001018555821562000298579182015b82811115620002975782518255916020019190600101906200027a565b5b509050620002a79190620002ab565b5090565b5b80821115620002c6576000816000905550600101620002ac565b5090565b60006002820490506001821680620002e357607f821691505b60208210811415620002fa57620002f962000300565b5b50919050565b7f4e487b7100000000000000000000000000000000000000000000000000000000600052602260045260246000fd5b611145806200033f6000396000f3fe6080604052600436106100595760003560e01c80633d7dc4c11461019f5780635badbe4c146101c8578063a8eb8fde146101f3578063b2d349df1461021c578063c5dea7d614610247578063d7d1bbdb146102895761019a565b3661019a57600480811115610097577f4e487b7100000000000000000000000000000000000000000000000000000000600052602160045260246000fd5b600160003373ffffffffffffffffffffffffffffffffffffffff1673ffffffffffffffffffffffffffffffffffffffff16815260200190815260200160002060020160009054906101000a900460ff16600481111561011f577f4e487b7100000000000000000000000000000000000000000000000000000000600052602160045260246000fd5b1461015f576040517f08c379a000000000000000000000000000000000000000000000000000000000815260040161015690610cdd565b60405180910390fd5b7feae99cedd8ca423a5349e4541e28bb3c6df3cb6aafd7c69670a03e7b874967cf3433604051610190929190610d18565b60405180910390a1005b600080fd5b3480156101ab57600080fd5b506101c660048036038101906101c19190610b1a565b6102b2565b005b3480156101d457600080fd5b506101dd6104f7565b6040516101ea9190610cfd565b60405180910390f35b3480156101ff57600080fd5b5061021a60048036038101906102159190610baa565b6104fd565b005b34801561022857600080fd5b5061023161068d565b60405161023e9190610cfd565b60405180910390f35b34801561025357600080fd5b5061026e60048036038101906102699190610b81565b610695565b60405161028096959493929190610d41565b60405180910390f35b34801561029557600080fd5b506102b060048036038101906102ab9190610b81565b6107a6565b005b8160ff16600160003373ffffffffffffffffffffffffffffffffffffffff1673ffffffffffffffffffffffffffffffffffffffff16815260200190815260200160002060020160009054906101000a900460ff16600481111561033e577f4e487b7100000000000000000000000000000000000000000000000000000000600052602160045260246000fd5b60ff16101561034c57600080fd5b600060405180606001604052808573ffffffffffffffffffffffffffffffffffffffff1681526020018381526020018460ff1660048111156103b7577f4e487b7100000000000000000000000000000000000000000000000000000000600052602160045260246000fd5b60048111156103ef577f4e487b7100000000000000000000000000000000000000000000000000000000600052602160045260246000fd5b815250905080600160008673ffffffffffffffffffffffffffffffffffffffff1673ffffffffffffffffffffffffffffffffffffffff16815260200190815260200160002060008201518160000160006101000a81548173ffffffffffffffffffffffffffffffffffffffff021916908373ffffffffffffffffffffffffffffffffffffffff16021790555060208201518160010190805190602001906104979291906109d0565b5060408201518160020160006101000a81548160ff021916908360048111156104e9577f4e487b7100000000000000000000000000000000000000000000000000000000600052602160045260246000fd5b021790555090505050505050565b60025481565b60006040518060c0016040528060016002546105199190610e1b565b81526020018581526020018381526020013373ffffffffffffffffffffffffffffffffffffffff1681526020018473ffffffffffffffffffffffffffffffffffffffff1681526020016000151581525090508060036000600160025461057f9190610e1b565b8152602001908152602001600020600082015181600001556020820151816001015560408201518160020190805190602001906105bd9291906109d0565b5060608201518160030160006101000a81548173ffffffffffffffffffffffffffffffffffffffff021916908373ffffffffffffffffffffffffffffffffffffffff16021790555060808201518160040160006101000a81548173ffffffffffffffffffffffffffffffffffffffff021916908373ffffffffffffffffffffffffffffffffffffffff16021790555060a08201518160040160146101000a81548160ff0219169083151502179055509050506002600081548092919061068290610f6b565b919050555050505050565b600047905090565b60036020528060005260406000206000915090508060000154908060010154908060020180546106c490610f08565b80601f01602080910402602001604051908101604052809291908181526020018280546106f090610f08565b801561073d5780601f106107125761010080835404028352916020019161073d565b820191906000526020600020905b81548152906001019060200180831161072057829003601f168201915b5050505050908060030160009054906101000a900473ffffffffffffffffffffffffffffffffffffffff16908060040160009054906101000a900473ffffffffffffffffffffffffffffffffffffffff16908060040160149054906101000a900460ff16905086565b600360048111156107e0577f4e487b7100000000000000000000000000000000000000000000000000000000600052602160045260246000fd5b600160003373ffffffffffffffffffffffffffffffffffffffff1673ffffffffffffffffffffffffffffffffffffffff16815260200190815260200160002060020160009054906101000a900460ff166004811115610868577f4e487b7100000000000000000000000000000000000000000000000000000000600052602160045260246000fd5b1461087257600080fd5b60025481111561088157600080fd5b60016003600083815260200190815260200160002060040160146101000a81548160ff0219169083151502179055506109066003600083815260200190815260200160002060040160009054906101000a900473ffffffffffffffffffffffffffffffffffffffff166003600084815260200190815260200160002060010154610909565b50565b4781111561094c576040517f08c379a000000000000000000000000000000000000000000000000000000000815260040161094390610cbd565b60405180910390fd5b8173ffffffffffffffffffffffffffffffffffffffff166108fc829081150290604051600060405180830381858888f19350505050158015610992573d6000803e3d6000fd5b507f8d50e4c46c79b7f958a8b0a770efb2ba815f4f846b71a6a1b7d37e111f32226581836040516109c4929190610d18565b60405180910390a15050565b8280546109dc90610f08565b90600052602060002090601f0160209004810192826109fe5760008555610a45565b82601f10610a1757805160ff1916838001178555610a45565b82800160010185558215610a45579182015b82811115610a44578251825591602001919060010190610a29565b5b509050610a529190610a56565b5090565b5b80821115610a6f576000816000905550600101610a57565b5090565b6000610a86610a8184610dce565b610da9565b905082815260208101848484011115610a9e57600080fd5b610aa9848285610ec6565b509392505050565b600081359050610ac0816110ca565b92915050565b600082601f830112610ad757600080fd5b8135610ae7848260208601610a73565b91505092915050565b600081359050610aff816110e1565b92915050565b600081359050610b14816110f8565b92915050565b600080600060608486031215610b2f57600080fd5b6000610b3d86828701610ab1565b9350506020610b4e86828701610b05565b925050604084013567ffffffffffffffff811115610b6b57600080fd5b610b7786828701610ac6565b9150509250925092565b600060208284031215610b9357600080fd5b6000610ba184828501610af0565b91505092915050565b600080600060608486031215610bbf57600080fd5b6000610bcd86828701610af0565b9350506020610bde86828701610ab1565b925050604084013567ffffffffffffffff811115610bfb57600080fd5b610c0786828701610ac6565b9150509250925092565b610c1a81610e71565b82525050565b610c2981610e83565b82525050565b6000610c3a82610dff565b610c448185610e0a565b9350610c54818560208601610ed5565b610c5d81611041565b840191505092915050565b6000610c75601283610e0a565b9150610c8082611052565b602082019050919050565b6000610c98602583610e0a565b9150610ca38261107b565b604082019050919050565b610cb781610eaf565b82525050565b60006020820190508181036000830152610cd681610c68565b9050919050565b60006020820190508181036000830152610cf681610c8b565b9050919050565b6000602082019050610d126000830184610cae565b92915050565b6000604082019050610d2d6000830185610cae565b610d3a6020830184610c11565b9392505050565b600060c082019050610d566000830189610cae565b610d636020830188610cae565b8181036040830152610d758187610c2f565b9050610d846060830186610c11565b610d916080830185610c11565b610d9e60a0830184610c20565b979650505050505050565b6000610db3610dc4565b9050610dbf8282610f3a565b919050565b6000604051905090565b600067ffffffffffffffff821115610de957610de8611012565b5b610df282611041565b9050602081019050919050565b600081519050919050565b600082825260208201905092915050565b6000610e2682610eaf565b9150610e3183610eaf565b9250827fffffffffffffffffffffffffffffffffffffffffffffffffffffffffffffffff03821115610e6657610e65610fb4565b5b828201905092915050565b6000610e7c82610e8f565b9050919050565b60008115159050919050565b600073ffffffffffffffffffffffffffffffffffffffff82169050919050565b6000819050919050565b600060ff82169050919050565b82818337600083830152505050565b60005b83811015610ef3578082015181840152602081019050610ed8565b83811115610f02576000848401525b50505050565b60006002820490506001821680610f2057607f821691505b60208210811415610f3457610f33610fe3565b5b50919050565b610f4382611041565b810181811067ffffffffffffffff82111715610f6257610f61611012565b5b80604052505050565b6000610f7682610eaf565b91507fffffffffffffffffffffffffffffffffffffffffffffffffffffffffffffffff821415610fa957610fa8610fb4565b5b600182019050919050565b7f4e487b7100000000000000000000000000000000000000000000000000000000600052601160045260246000fd5b7f4e487b7100000000000000000000000000000000000000000000000000000000600052602260045260246000fd5b7f4e487b7100000000000000000000000000000000000000000000000000000000600052604160045260246000fd5b6000601f19601f8301169050919050565b7f496e73756666696369656e742046756e64730000000000000000000000000000600082015250565b7f6f6e6c792061646d696e2063616e2073656e64206d6f6e657920746f20636f6e60008201527f7472616374000000000000000000000000000000000000000000000000000000602082015250565b6110d381610e71565b81146110de57600080fd5b50565b6110ea81610eaf565b81146110f557600080fd5b50565b61110181610eb9565b811461110c57600080fd5b5056fea2646970667358221220b5eaedeff1003368388c0d7c4dd292c095a2771b742f5b8bf07eb151aab9d1b564736f6c63430008040033",
    "linkReferences": {},
    "deployedLinkReferences": {}
}