{
    "_format": "hh-sol-artifact-1",
    "contractName": "Mudrika",
    "sourceName": "contracts/mudrika.sol",
    "abi": [
        {
            "inputs": [],
            "stateMutability": "nonpayable",
            "type": "constructor"
        },
        {
            "anonymous": false,
            "inputs": [
                {
                    "indexed": false,
                    "internalType": "uint256",
                    "name": "amount",
                    "type": "uint256"
                },
                {
                    "indexed": false,
                    "internalType": "address",
                    "name": "by",
                    "type": "address"
                }
            ],
            "name": "fundDeposited",
            "type": "event"
        },
        {
            "anonymous": false,
            "inputs": [
                {
                    "indexed": false,
                    "internalType": "uint256",
                    "name": "amount",
                    "type": "uint256"
                },
                {
                    "indexed": false,
                    "internalType": "address",
                    "name": "to",
                    "type": "address"
                }
            ],
            "name": "fundTransferred",
            "type": "event"
        },
        {
            "anonymous": false,
            "inputs": [
                {
                    "indexed": false,
                    "internalType": "uint256",
                    "name": "requestId",
                    "type": "uint256"
                }
            ],
            "name": "requestAdded",
            "type": "event"
        },
        {
            "inputs": [
                {
                    "internalType": "address",
                    "name": "account",
                    "type": "address"
                },
                {
                    "internalType": "uint8",
                    "name": "userType",
                    "type": "uint8"
                },
                {
                    "internalType": "string",
                    "name": "name",
                    "type": "string"
                }
            ],
            "name": "addUser",
            "outputs": [],
            "stateMutability": "nonpayable",
            "type": "function"
        },
        {
            "inputs": [
                {
                    "internalType": "uint256",
                    "name": "requestId",
                    "type": "uint256"
                }
            ],
            "name": "approveRequest",
            "outputs": [],
            "stateMutability": "nonpayable",
            "type": "function"
        },
        {
            "inputs": [],
            "name": "fundRemaining",
            "outputs": [
                {
                    "internalType": "uint256",
                    "name": "",
                    "type": "uint256"
                }
            ],
            "stateMutability": "view",
            "type": "function"
        },
        {
            "inputs": [],
            "name": "requestCount",
            "outputs": [
                {
                    "internalType": "uint256",
                    "name": "",
                    "type": "uint256"
                }
            ],
            "stateMutability": "view",
            "type": "function"
        },
        {
            "inputs": [
                {
                    "internalType": "uint256",
                    "name": "amount",
                    "type": "uint256"
                },
                {
                    "internalType": "string",
                    "name": "description",
                    "type": "string"
                }
            ],
            "name": "requestFunds",
            "outputs": [],
            "stateMutability": "nonpayable",
            "type": "function"
        },
        {
            "inputs": [
                {
                    "internalType": "uint256",
                    "name": "",
                    "type": "uint256"
                }
            ],
            "name": "requestsReceived",
            "outputs": [
                {
                    "internalType": "uint256",
                    "name": "requestId",
                    "type": "uint256"
                },
                {
                    "internalType": "uint256",
                    "name": "fund",
                    "type": "uint256"
                },
                {
                    "internalType": "string",
                    "name": "description",
                    "type": "string"
                },
                {
                    "internalType": "address",
                    "name": "from",
                    "type": "address"
                },
                {
                    "internalType": "address",
                    "name": "to",
                    "type": "address"
                },
                {
                    "internalType": "bool",
                    "name": "approvalStatus",
                    "type": "bool"
                }
            ],
            "stateMutability": "view",
            "type": "function"
        },
        {
            "stateMutability": "payable",
            "type": "receive"
        }
    ],
    "bytecode": "0x60806040523480156200001157600080fd5b50336000806101000a81548173ffffffffffffffffffffffffffffffffffffffff021916908373ffffffffffffffffffffffffffffffffffffffff1602179055506000600281905550620000a1336040518060400160405280600581526020017f41646d696e000000000000000000000000000000000000000000000000000000815250620000a760201b60201c565b6200032f565b600060405180606001604052808473ffffffffffffffffffffffffffffffffffffffff16815260200183815260200160048081111562000110577f4e487b7100000000000000000000000000000000000000000000000000000000600052602160045260246000fd5b815250905080600160008573ffffffffffffffffffffffffffffffffffffffff1673ffffffffffffffffffffffffffffffffffffffff16815260200190815260200160002060008201518160000160006101000a81548173ffffffffffffffffffffffffffffffffffffffff021916908373ffffffffffffffffffffffffffffffffffffffff1602179055506020820151816001019080519060200190620001ba9291906200021a565b5060408201518160020160006101000a81548160ff021916908360048111156200020d577f4e487b7100000000000000000000000000000000000000000000000000000000600052602160045260246000fd5b0217905550905050505050565b8280546200022890620002ca565b90600052602060002090601f0160209004810192826200024c576000855562000298565b82601f106200026757805160ff191683800117855562000298565b8280016001018555821562000298579182015b82811115620002975782518255916020019190600101906200027a565b5b509050620002a79190620002ab565b5090565b5b80821115620002c6576000816000905550600101620002ac565b5090565b60006002820490506001821680620002e357607f821691505b60208210811415620002fa57620002f962000300565b5b50919050565b7f4e487b7100000000000000000000000000000000000000000000000000000000600052602260045260246000fd5b6111fd806200033f6000396000f3fe6080604052600436106100595760003560e01c80633d7dc4c11461019f5780635badbe4c146101c85780636d5ee98a146101f3578063b2d349df1461021c578063c5dea7d614610247578063d7d1bbdb146102895761019a565b3661019a57600480811115610097577f4e487b7100000000000000000000000000000000000000000000000000000000600052602160045260246000fd5b600160003373ffffffffffffffffffffffffffffffffffffffff1673ffffffffffffffffffffffffffffffffffffffff16815260200190815260200160002060020160009054906101000a900460ff16600481111561011f577f4e487b7100000000000000000000000000000000000000000000000000000000600052602160045260246000fd5b1461015f576040517f08c379a000000000000000000000000000000000000000000000000000000000815260040161015690610d95565b60405180910390fd5b7feae99cedd8ca423a5349e4541e28bb3c6df3cb6aafd7c69670a03e7b874967cf3433604051610190929190610dd0565b60405180910390a1005b600080fd5b3480156101ab57600080fd5b506101c660048036038101906101c19190610be5565b6102b2565b005b3480156101d457600080fd5b506101dd6104f7565b6040516101ea9190610db5565b60405180910390f35b3480156101ff57600080fd5b5061021a60048036038101906102159190610c75565b6104fd565b005b34801561022857600080fd5b50610231610758565b60405161023e9190610db5565b60405180910390f35b34801561025357600080fd5b5061026e60048036038101906102699190610c4c565b610760565b60405161028096959493929190610df9565b60405180910390f35b34801561029557600080fd5b506102b060048036038101906102ab9190610c4c565b610871565b005b8160ff16600160003373ffffffffffffffffffffffffffffffffffffffff1673ffffffffffffffffffffffffffffffffffffffff16815260200190815260200160002060020160009054906101000a900460ff16600481111561033e577f4e487b7100000000000000000000000000000000000000000000000000000000600052602160045260246000fd5b60ff16101561034c57600080fd5b600060405180606001604052808573ffffffffffffffffffffffffffffffffffffffff1681526020018381526020018460ff1660048111156103b7577f4e487b7100000000000000000000000000000000000000000000000000000000600052602160045260246000fd5b60048111156103ef577f4e487b7100000000000000000000000000000000000000000000000000000000600052602160045260246000fd5b815250905080600160008673ffffffffffffffffffffffffffffffffffffffff1673ffffffffffffffffffffffffffffffffffffffff16815260200190815260200160002060008201518160000160006101000a81548173ffffffffffffffffffffffffffffffffffffffff021916908373ffffffffffffffffffffffffffffffffffffffff1602179055506020820151816001019080519060200190610497929190610a9b565b5060408201518160020160006101000a81548160ff021916908360048111156104e9577f4e487b7100000000000000000000000000000000000000000000000000000000600052602160045260246000fd5b021790555090505050505050565b60025481565b60026004811115610537577f4e487b7100000000000000000000000000000000000000000000000000000000600052602160045260246000fd5b600160003373ffffffffffffffffffffffffffffffffffffffff1673ffffffffffffffffffffffffffffffffffffffff16815260200190815260200160002060020160009054906101000a900460ff1660048111156105bf577f4e487b7100000000000000000000000000000000000000000000000000000000600052602160045260246000fd5b146105c957600080fd5b60006040518060c0016040528060016002546105e59190610ed3565b81526020018481526020018381526020013073ffffffffffffffffffffffffffffffffffffffff1681526020013373ffffffffffffffffffffffffffffffffffffffff1681526020016000151581525090508060036000600160025461064b9190610ed3565b815260200190815260200160002060008201518160000155602082015181600101556040820151816002019080519060200190610689929190610a9b565b5060608201518160030160006101000a81548173ffffffffffffffffffffffffffffffffffffffff021916908373ffffffffffffffffffffffffffffffffffffffff16021790555060808201518160040160006101000a81548173ffffffffffffffffffffffffffffffffffffffff021916908373ffffffffffffffffffffffffffffffffffffffff16021790555060a08201518160040160146101000a81548160ff0219169083151502179055509050506002600081548092919061074e90611023565b9190505550505050565b600047905090565b600360205280600052604060002060009150905080600001549080600101549080600201805461078f90610fc0565b80601f01602080910402602001604051908101604052809291908181526020018280546107bb90610fc0565b80156108085780601f106107dd57610100808354040283529160200191610808565b820191906000526020600020905b8154815290600101906020018083116107eb57829003601f168201915b5050505050908060030160009054906101000a900473ffffffffffffffffffffffffffffffffffffffff16908060040160009054906101000a900473ffffffffffffffffffffffffffffffffffffffff16908060040160149054906101000a900460ff16905086565b600360048111156108ab577f4e487b7100000000000000000000000000000000000000000000000000000000600052602160045260246000fd5b600160003373ffffffffffffffffffffffffffffffffffffffff1673ffffffffffffffffffffffffffffffffffffffff16815260200190815260200160002060020160009054906101000a900460ff166004811115610933577f4e487b7100000000000000000000000000000000000000000000000000000000600052602160045260246000fd5b1461093d57600080fd5b60025481111561094c57600080fd5b60016003600083815260200190815260200160002060040160146101000a81548160ff0219169083151502179055506109d16003600083815260200190815260200160002060040160009054906101000a900473ffffffffffffffffffffffffffffffffffffffff1660036000848152602001908152602001600020600101546109d4565b50565b47811115610a17576040517f08c379a0000000000000000000000000000000000000000000000000000000008152600401610a0e90610d75565b60405180910390fd5b8173ffffffffffffffffffffffffffffffffffffffff166108fc829081150290604051600060405180830381858888f19350505050158015610a5d573d6000803e3d6000fd5b507f8d50e4c46c79b7f958a8b0a770efb2ba815f4f846b71a6a1b7d37e111f3222658183604051610a8f929190610dd0565b60405180910390a15050565b828054610aa790610fc0565b90600052602060002090601f016020900481019282610ac95760008555610b10565b82601f10610ae257805160ff1916838001178555610b10565b82800160010185558215610b10579182015b82811115610b0f578251825591602001919060010190610af4565b5b509050610b1d9190610b21565b5090565b5b80821115610b3a576000816000905550600101610b22565b5090565b6000610b51610b4c84610e86565b610e61565b905082815260208101848484011115610b6957600080fd5b610b74848285610f7e565b509392505050565b600081359050610b8b81611182565b92915050565b600082601f830112610ba257600080fd5b8135610bb2848260208601610b3e565b91505092915050565b600081359050610bca81611199565b92915050565b600081359050610bdf816111b0565b92915050565b600080600060608486031215610bfa57600080fd5b6000610c0886828701610b7c565b9350506020610c1986828701610bd0565b925050604084013567ffffffffffffffff811115610c3657600080fd5b610c4286828701610b91565b9150509250925092565b600060208284031215610c5e57600080fd5b6000610c6c84828501610bbb565b91505092915050565b60008060408385031215610c8857600080fd5b6000610c9685828601610bbb565b925050602083013567ffffffffffffffff811115610cb357600080fd5b610cbf85828601610b91565b9150509250929050565b610cd281610f29565b82525050565b610ce181610f3b565b82525050565b6000610cf282610eb7565b610cfc8185610ec2565b9350610d0c818560208601610f8d565b610d15816110f9565b840191505092915050565b6000610d2d601283610ec2565b9150610d388261110a565b602082019050919050565b6000610d50602583610ec2565b9150610d5b82611133565b604082019050919050565b610d6f81610f67565b82525050565b60006020820190508181036000830152610d8e81610d20565b9050919050565b60006020820190508181036000830152610dae81610d43565b9050919050565b6000602082019050610dca6000830184610d66565b92915050565b6000604082019050610de56000830185610d66565b610df26020830184610cc9565b9392505050565b600060c082019050610e0e6000830189610d66565b610e1b6020830188610d66565b8181036040830152610e2d8187610ce7565b9050610e3c6060830186610cc9565b610e496080830185610cc9565b610e5660a0830184610cd8565b979650505050505050565b6000610e6b610e7c565b9050610e778282610ff2565b919050565b6000604051905090565b600067ffffffffffffffff821115610ea157610ea06110ca565b5b610eaa826110f9565b9050602081019050919050565b600081519050919050565b600082825260208201905092915050565b6000610ede82610f67565b9150610ee983610f67565b9250827fffffffffffffffffffffffffffffffffffffffffffffffffffffffffffffffff03821115610f1e57610f1d61106c565b5b828201905092915050565b6000610f3482610f47565b9050919050565b60008115159050919050565b600073ffffffffffffffffffffffffffffffffffffffff82169050919050565b6000819050919050565b600060ff82169050919050565b82818337600083830152505050565b60005b83811015610fab578082015181840152602081019050610f90565b83811115610fba576000848401525b50505050565b60006002820490506001821680610fd857607f821691505b60208210811415610fec57610feb61109b565b5b50919050565b610ffb826110f9565b810181811067ffffffffffffffff8211171561101a576110196110ca565b5b80604052505050565b600061102e82610f67565b91507fffffffffffffffffffffffffffffffffffffffffffffffffffffffffffffffff8214156110615761106061106c565b5b600182019050919050565b7f4e487b7100000000000000000000000000000000000000000000000000000000600052601160045260246000fd5b7f4e487b7100000000000000000000000000000000000000000000000000000000600052602260045260246000fd5b7f4e487b7100000000000000000000000000000000000000000000000000000000600052604160045260246000fd5b6000601f19601f8301169050919050565b7f496e73756666696369656e742046756e64730000000000000000000000000000600082015250565b7f6f6e6c792061646d696e2063616e2073656e64206d6f6e657920746f20636f6e60008201527f7472616374000000000000000000000000000000000000000000000000000000602082015250565b61118b81610f29565b811461119657600080fd5b50565b6111a281610f67565b81146111ad57600080fd5b50565b6111b981610f71565b81146111c457600080fd5b5056fea26469706673582212209905629bcb5d123cd1799765dcf42265c45fac1c04d3ae0f35e1856f3c98fbc164736f6c63430008040033",
    "linkReferences": {},
    "deployedLinkReferences": {}
}